:100000000C9496060C94BE060C94BE060C94BE0688
:100010000C94BE060C94BE060C94BE060C94BE0650
:100020000C94BE060C94BE060C94BE060C94BE0640
:100030000C94BE060C94BE060C94BE060C94BE0630
:100040000C94EF0B0C94BE060C94BE060C94BE06EA
:100050000C94BE060C94BE060C94BE060C94BE0610
:100060000C94390C0C94BE0600000008000201003C
:100070000003040700000000000000000508000065
:1000800005080800050810000508180005082000EC
:10009000050828000508300005083800050840005C
:1000A00005084800050850000508580005086000CC
:1000B000050868000508700005087800050880003C
:1000C0000508880005089000050898000508A000AC
:1000D0000508A8000508B0000508B8000508C0001C
:1000E0000508C8000508D0000508D8000508E0008C
:1000F0000508E8000508F0000508F80005080001FB
:100100000508080105081001050818010508200167
:1001100005082801050830010508380105084001D7
:100120000508480105085001050858010508600147
:1001300005086801050870010508780105088001B7
:100140000508880105089001050898010508A00127
:100150000508A8010508B0010508B8010508C00197
:100160000508C8010508D0010508D8010508E00107
:100170000508E8010508F0010508F8010508000276
:1001800005080802050810020508180205082002E3
:100190000508280205083002050838020508400253
:1001A00005084802050850020508580205086002C3
:1001B0000508680205087002050878020508800233
:1001C0000508880205089002050898020508A002A3
:1001D0000508A8020508B0020508B8020508C00213
:1001E0000508C8020508D0020508D8020508E00283
:1001F0000508E8020508F0020508F80205080003F2
:10020000050808030508100305081803050820035E
:1002100005082803050830030508380305084003CE
:10022000050848030508500305085803050860033E
:1002300005086803050870030508780305088003AE
:100240000508880305089003050898030508A0031E
:100250000508A8030508B0030508B8030508C0038E
:100260000508C8030508D0030508D8030508E003FE
:100270000508E8030508F0030508F803050800046D
:1002800005080804050810040508180405082004DA
:10029000050828040508300405083804050840044A
:1002A00005084804050850040508580405086004BA
:1002B000050868040508700405087804050880042A
:1002C0000508880405089004050898040508A0049A
:1002D0000508A8040508B0040508B8040508C0040A
:1002E0000508C8040508D0040508D8040508E0047A
:1002F0000508E8040508F0040508F80405080005E9
:100300000508080505081005050818050508200555
:1003100005082805050830050508380505084005C5
:100320000508480505085005050858050508600535
:1003300005086805050870050508780505088005A5
:100340000508880505089005050898050508A00515
:100350000508A8050508B0050508B8050508C00585
:100360000508C8050508D0050508D8050508E005F5
:100370000508E8050508F0050508F8050508000664
:1003800005080806050810060508180605082006D1
:100390000508280605083006050838060508400641
:1003A00005084806050850060508580605086006B1
:1003B0000508680605087006050878060508800621
:1003C0000508880605089006050898060508A00691
:1003D0000508A8060508B0060508B8060508C00601
:1003E0000508C8060508D0060508D8060508E00671
:1003F0000508E8060508F0060508F80605080007E0
:10040000050808070508100705081807050820074C
:1004100005082807050830070508380705084007BC
:10042000050848070508500705085807050860072C
:10043000050868070508700705087807050880079C
:100440000508880705089007050898070508A0070C
:100450000508A8070508B0070508B8070508C0077C
:100460000508C8070508D0070508D8070508E007EC
:100470000508E8070508F0070508F80700FF000071
:1004800000000000000070F8A8F8D888700070F82C
:10049000A8F888D870000050F8F8F8702000002004
:1004A00070F8F87020007050F8A8F82070002070E4
:1004B000F8F8F82070000000207070200000F8F8B4
:1004C000D88888D8F8F80000205050200000F8F8AC
:1004D000D8A8A8D8F8F800381868A0A040007088FC
:1004E000887020F82000784878404040C000784864
:1004F00078484858C00020A870D8D870A82080C07C
:10050000F0F8F0C08000081878F87818080020701B
:10051000A820A8702000D8D8D8D8D800D80078A8AB
:10052000A868282828003048502810484830000083
:10053000000000F8F8002070A820A87020F8002023
:1005400070A82020200000202020A870200000207B
:1005500010F810200000002040F84020000000802B
:100560008080F80000000050F8F8500000000020E3
:100570002070F8F8000000F8F8702020000000005B
:10058000000000000000202020202000200050500B
:100590005000000000005050F850F85050002078F3
:1005A000A07028F02000C0C810204098180040A07B
:1005B000A040A890680030302040000000001020CB
:1005C000404040201000402010101020400020A883
:1005D00070F870A82000002020F820200000000003
:1005E000000030302040000000F800000000000053
:1005F00000000030300000081020408000007088AB
:1006000098A8C88870002060202020207000708882
:1006100008708080F800F8081030088870001030EA
:100620005090F8101000F880F008088870003840EA
:1006300080F088887000F8080810204080007088DA
:10064000887088887000708888780810E000000042
:1006500020002000000000002000202040000810A2
:100660002040201008000000F800F80000004020A2
:10067000100810204000708808302000200070888A
:10068000A8B8B080780020508888F8888800F08862
:1006900088F08888F0007088808080887000F088FA
:1006A00088888888F000F88080F08080F800F880E2
:1006B00080F08080800078888080988878008888A2
:1006C00088F888888800702020202020700038104A
:1006D0001010109060008890A0C0A09088008080CA
:1006E00080808080F80088D8A8A8A888880088889A
:1006F000C8A8988888007088888888887000F088E2
:1007000088F08080800070888888A8906800F088D1
:1007100088F0A09088007088807008887000F8A821
:100720002020202020008888888888887000888879
:10073000888888502000888888A8A8A850008888C1
:100740005020508888008888502020202000F808F9
:1007500010704080F80078404040404078000080B1
:100760004020100800007808080808087800205089
:10077000880000000000000000000000F800606039
:100780002010000000000000601070907800808051
:10079000B0C888C8B0000000708880887000080861
:1007A00068988898680000007088F88070001028A9
:1007B00020702020200000007098986808708080C9
:1007C000B0C88888880020006020202070001000B9
:1007D000101010906000808090A0C0A09000602059
:1007E0002020202070000000D0A8A8A8A8000000A9
:1007F000B0C8888888000000708888887000000071
:10080000B0C8C8B0808000006898986808080000E8
:10081000B0C880808000000078807008F000202040
:10082000F8202028100000008888889868000000C0
:1008300088888850200000008888A8A85000000000
:100840008850205088000000888878088870000050
:10085000F8102040F8001020204020201000202018
:10086000200020202000402020102020400040A810
:100870001000000000002070D88888F80000708800
:100880008080887010600088008888986800180050
:100890007088F8807800F800601070907800880008
:1008A000601070907800C000601070907800300088
:1008B0006010709078000078C0C078103000F800A8
:1008C0007088F880780088007088F8807800C00010
:1008D0007088F880780028003010101038003048F8
:1008E0003010101038006000301010103800500028
:1008F000205088F888882000205088F888883000A8
:10090000F080E080F0000000781078907800385097
:1009100090F8909098007088007088887000008827
:1009200000708888700000C000708888700070882F
:1009300000888898680000C000888898680048008F
:100940004848483808708800708888887000880097
:100950008888888870002020F8A0A0F820203058CF
:1009600048E04048F800D8D870F820F82020E090FF
:1009700090E090B89090182820702020A0C0180017
:1009800060107090780018003010101038000018B7
:1009900000708888700000180088889868000078C7
:1009A000007048484800F800C8E8B898880070907F
:1009B000907800F800007088887000F8000020002F
:1009C000206080887000000000F880800000000037
:1009D00000F808080000808890B84898203880887F
:1009E00090A858B8080820200020202020000028C7
:1009F00050A05028000000A0502850A000002088DF
:100A000020882088208850A850A850A850A81010EE
:100A100010101010101010101010F01010101010F6
:100A2000F010F010101028282828E82828280000A6
:100A30000000F82828280000F010F01010102828D6
:100A4000E808E82828282828282828282828000016
:100A5000F808E82828282828E808F80000002828AE
:100A60002828F80000001010F010F000000000002E
:100A70000000F010101010101010180000001010DE
:100A80001010F800000000000000F8101010101006
:100A900010101810101000000000F80000001010D6
:100AA0001010F8101010101018101810101028281E
:100AB0002828282828282828282038000000000076
:100AC0003820282828282828E800F80000000000FE
:100AD000F800E82828282828282028282828000086
:100AE000F800F80000002828E800E828282810105E
:100AF000F800F800000028282828F800000000006E
:100B0000F800F810101000000000F8282828282805
:100B100028283800000010101810180000000000ED
:100B20001810181010100000000038282828282855
:100B30002828F82828281010F810F8101010101085
:100B40001010F00000000000000018101010F8F85D
:100B5000F8F8F8F8F8F800000000F8F8F8F8E0E025
:100B6000E0E0E0E0E0E01818181818181818F8F895
:100B7000F8F8000000000000689090906800007095
:100B800098F098F0800000F898808080800000F84D
:100B9000505050505000F88840204088F800000025
:100BA000789090906000005050505068C00000F85D
:100BB000A02020202000F8207088887020F8205085
:100BC00088F888502000205088885050D800304045
:100BD00030708888700000000070A8A8700008704D
:100BE00098A8A8C87080708080F08080700070889D
:100BF00088888888880000F800F800F80000202025
:100C0000F8202000F800402010204000F8001020BC
:100C100040201000F800382820202020202020200C
:100C2000202020A0A0E0303000F80030300000E8A4
:100C3000B800E8B8000070D8D870000000000000CC
:100C400000303000000000000000300000003820BC
:100C50002020A0A06020704848484800000070187C
:100C6000306078000000000078787878000000009C
:100C700000000000000004E010021C0712373229B7
:100C80002D29252B3900010310E110031D07062E25
:100C90002C292D2E2E373F0000021013800A2980A8
:100CA00064022A040000007F2B040000009F0F0153
:100CB00080961180FFB103012C2DB203012C2DB3BE
:100CC00006012C2D012C2DB40107C003A20284C102
:100CD00001C5C2020A00C3028A2AC4028AEEC50103
:100CE0000E20003601C83A0105000000002500284A
:100CF000002B0000000000240027002A0004040448
:100D000004040404040202020202020303030303B4
:100D100003020201020408102040800102040810AE
:100D200020010204081020408000761011241FBE0C
:100D3000CFEFD8E0DEBFCDBF11E0A0E0B1E0EEE63E
:100D4000FAE202C005900D92A036B107D9F722E071
:100D5000A0E6B1E001C01D92AC31B207E1F716E0A8
:100D6000C6E9D6E004C02197FE010E94C212C5392F
:100D7000D107C9F70E9487100C9435150C94000018
:100D800085ED8093BC008091BC0084FDFCCF109267
:100D9000E20108954091BC01262F30E0240F311D5F
:100DA00021323105DCF42091E2012430C9F4FC0148
:100DB00080E090E0861758F43091BC012191DC016D
:100DC000A656BE4FA30FB11D2C930196F3CF809171
:100DD000BC01680F6093BC0180E0089581E0089534
:100DE00082E00895E0918C01F0918D01309729F017
:100DF00010928B0110928A0109940895CF93DF938A
:100E0000AC01E0918801F09189013097F1F0909167
:100E10008701809186019817C0F090E0292F30E07B
:100E20002617370754F4D901AA59BE4FEA01C20F59
:100E3000D31F88818C939F5FF1CF109287016093BD
:100E40008601CB01DF91CF910994DF91CF91089575
:100E50000895E091870180918601E81730F4F0E071
:100E6000EA59FE4F808190E008958FEF9FEF08953B
:100E70009091870180918601981750F4E92FF0E056
:100E8000EA59FE4F208130E09F5F9093870102C0B6
:100E90002FEF3FEFC90108958091860190E02091E6
:100EA0008701821B91090895CF93DF9300D0CDB7BE
:100EB000DEB7CB01642F49835A830E94CA06498159
:100EC000842F5A81952F0F900F90DF91CF91089525
:100ED000CF93DF931F92CDB7DEB7698361E0CE0178
:100EE00001960E94CA0681E090E00F90DF91CF91B9
:100EF0000895CF938091860190E020918701821B15
:100F0000910918161906C4F4C0916501C53070F432
:100F100081E08C0F809365018EE891E00E94380794
:100F2000EC2FF0E0E05AFE4F8083E4CFE091110215
:100F3000F09112020995DECFCF91089508952F9276
:100F40003F924F925F926F927F928F929F92AF9259
:100F5000BF92CF92DF92EF92FF920F931F93CF93A6
:100F6000DF93CDB7DEB72C970FB6F894DEBF0FBE78
:100F7000CDBF9D838C83DC0157968C9157972817A2
:100F800030F058969C91921710F0281B01C020E079
:100F9000AC81BD8118968D919C911997681779073E
:100FA0000CF0D7C01A968D919C911B974817590742
:100FB0000CF0CFC0B4E02B9F50011124EC81FD81D7
:100FC000A48DB58DAA0DBB1DEC914C2C512CEC9D24
:100FD000F0011124E491CB018E0F911D1816190612
:100FE0000CF0B7C01196EC911197EC9DF001112413
:100FF000E491CA018E0F911D181619060CF0A9C0B4
:10100000C98237011801598748874B018C819D811E
:101010009C878B87FD013296859194916C01A2E0AB
:10102000CA0ED11C1A82EA818E2FEE0F990BAB8566
:10103000BC855C96ED91FC915D97EA0DFB1D3196A8
:10104000E491F0E08E179F070CF083C049815A812C
:10105000540390011124A885B985A20FB31FBD8345
:10106000AC8320E0E885F985E80FF91FFF83EE8364
:10107000622F022E000C770BAB85BC855C96ED9140
:10108000FC915D97EA0DFB1DE491F0E06E177F0780
:101090000CF05BC0F1E0F20FFA87822F877069F4E1
:1010A000C6010196AB85BC855A96ED91FC915B9784
:1010B000EC0DFD1DB491BB836C01EB81E7FF19C002
:1010C000AB85BC85ED91FC91B981B13039F4680DE7
:1010D000791D0480F581E02D91011BC03981230326
:1010E000B0011124680D791D0684F785E02D71018A
:1010F00020C06214730421F1AB85BC85ED91FC9195
:10110000B981B13061F4680D791D0480F581E02D5D
:1011100093014E815F818B859C85099511C0398132
:101120002303B0011124680D791D0684F785E02D95
:101130007301820192014C815D818B859C850995AB
:101140004B81440F4B832A8593CFBA81BF5FBA830B
:101150006ACF2C960FB6F894DEBF0FBECDBFDF91DD
:10116000CF911F910F91FF90EF90DF90CF90BF90A4
:10117000AF909F908F907F906F905F904F903F9037
:101180002F900895AF92BF92CF92DF92EF92FF928D
:101190000F931F93CF93DF93EC016A3069F42C898E
:1011A000EC8DFD8DE181F0E0E4918E859F852E9F91
:1011B000800D911D11246AC06D3009F46BC0D62ECC
:1011C000E881F981EA88FB88088919894E855F855D
:1011D0006C857D850488F589E02DCC882D2D0995B9
:1011E000ED2DF0E08F89E81BF109EE0FFF1FEE0FE8
:1011F000FF1F6C8D7D8DE60FF71FC490AC2CB12CBA
:101200003196D490298D1216F4F4EA88FB888889E7
:1012100099898E159F05B9F03C89E881F981D39EA3
:10122000800111242303C00111244E855F856C8544
:101230007D85C39E600D711D11240684F785E02D08
:101240009C01CE0109952C89898DA80EB11C87FDC2
:10125000BA942A9DA0012B9D500D11248C859D854B
:10126000840F951F9D878C873E8D332399F0488589
:101270005985C29E4019510911244817590750F445
:101280008E859F85D29E800D911D11249F878E870C
:101290001D861C8681E090E0DF91CF911F910F9118
:1012A000FF90EF90DF90CF90BF90AF900895EF92B6
:1012B000FF920F931F93DC01ED91FC9111971A9609
:1012C0000D911C911B9718962D913C9119970684AE
:1012D000F785E02D7B0140E050E060E070E009958B
:1012E0001F910F91FF90EF9008956F927F928F92D0
:1012F0009F92AF92BF92CF92DF92EF92FF920F93A5
:101300001F93CF93DF936C015A014801EB013B011E
:10131000620E731EC615D70574F4D601ED91FC91CB
:101320000084F185E02D87019401A501BE01C6016D
:1013300009952196EFCFDF91CF911F910F91FF90EB
:10134000EF90DF90CF90BF90AF909F908F907F9065
:101350006F900895EF92FF920F931F93DC01ED9130
:10136000FC91260F371F215031090680F781E02DAF
:1013700078018A0109951F910F91FF90EF900895D0
:10138000EF92FF920F931F937801DC01ED91FC9196
:10139000240F351F8901015011090680F781E02DC6
:1013A0009B0109951F910F91FF90EF9008956F9207
:1013B0007F928F929F92AF92BF92CF92DF92EF92E5
:1013C000FF920F931F93CF93DF93EC014B015A01D0
:1013D00069013801E881F9810284F385E02D8701F4
:1013E0000995E881F981A501460D571D4150510924
:1013F0000284F385E02D9601B401CE010995E881C0
:10140000F9810084F185E02D9301A501B401CE019D
:101410000995E881F981C80CD91CB60161507109A0
:101420000084F185E02D9301A501CE010995DF919E
:10143000CF911F910F91FF90EF90DF90CF90BF90D1
:10144000AF909F908F907F906F9008952F923F92D2
:101450004F925F926F927F928F929F92AF92BF92C4
:10146000CF92DF92EF92FF920F931F93CF93DF9370
:1014700000D01F92CDB7DEB74C017B836A836A012F
:10148000590117019801241B350B37FF03C0319513
:1014900021953109C5014A815B81841B950B97FF1A
:1014A00003C091958195910951E059838217930763
:1014B00014F019820BC09A2D8B2D5801092F182F6B
:1014C0009A818B81DB82CA82C92ED82E8A819B8128
:1014D000A816B9065CF49C2D8D2D6801092F182FD4
:1014E0009A818B81BB82AA82A92EB82E2501AA815E
:1014F000BB814A1A5B0A38016C187D0877FE03C06D
:10150000719461947108720157FE03C0BFEFEB1A2A
:10151000FB0AF594E794C016D1061CF00FEF1FEFFD
:101520001FC001E010E01CC0D401ED91FC91B98115
:101530000480F581E02D9101BB23C1F04A815B81DC
:10154000B601C4010995E618F708F7FE04C0C00EFD
:10155000D11EE40CF51CEA81FB813196FB83EA8302
:101560004A815B81A416B506FCF604C0A6016A8117
:101570007B81E7CF0F900F900F90DF91CF911F915C
:101580000F91FF90EF90DF90CF90BF90AF909F9022
:101590008F907F906F905F904F903F902F90089525
:1015A000EF92FF920F931F93DC01ED91FC91119745
:1015B0001A960D911C911B9718962D913C91199795
:1015C0000684F785E02D7B0140E050E060E070E0AC
:1015D00009951F910F91FF90EF900895FC0180A154
:1015E000811122C028E030E090E8A1A1B2A186A537
:1015F000492F462319F04C91842B03C04C918095C0
:1016000084238C93A3A1B4A14C9187A5842B8C93A4
:10161000A3A1B4A14C9187A5809584238C93969522
:101620002150310911F708956EBD0DB407FEFDCFAD
:1016300008957F928F929F92AF92BF92CF92DF9246
:10164000EF92FF920F931F93CF93DF93CDB7DEB747
:1016500029970FB6F894DEBF0FBECDBF709065011D
:1016600080E6A82E81E0B82E6501CE0101967C01AE
:101670008C2D8A19871598F5D6018D916D014AE058
:10168000B70190E00E94D414F70101900020E9F71F
:1016900031978F010E191F09B8016F5F7F4F80E0EE
:1016A00090E00E94F5134C01009731F0FC0110828C
:1016B000B7010E94CD1402C000E010E08091130237
:1016C00090911402DC01ED91FC910280F381E02DF8
:1016D000A801B4010995C4010E945D13C9CF2996E0
:1016E0000FB6F894DEBF0FBECDBFDF91CF911F9133
:1016F0000F91FF90EF90DF90CF90BF90AF909F90B1
:101700008F907F900895FC018481880F8093BA00A8
:1017100082EF96E09093BB018093BA018EEF96E042
:101720009093BF018093BE011092870110928601B1
:1017300010928B0110928A011092E20181E0809355
:10174000E4011092E30161E082E10E94F00F61E0A8
:1017500083E10E94F00FE9EBF0E080818E7F8083CF
:1017600080818D7F808388E48093B80085E48093B6
:10177000BC0089E797E090938901809388010895E0
:1017800085E0E0E6F1E0DF011D928A95E9F710922D
:10179000650108953FB7F89480910D0290910E0273
:1017A000A0910F02B091100226B5A89B05C02F3F53
:1017B00019F00196A11DB11D3FBFBA2FA92F982F77
:1017C0008827820F911DA11DB11DBC01CD0142E0F2
:1017D000660F771F881F991F4A95D1F708951F92AA
:1017E0000F920FB60F9211242F933F938F939F93D5
:1017F000AF93BF938091090290910A02A0910B02CE
:10180000B0910C023091080223E0230F2D3720F411
:101810000196A11DB11D05C026E8230F0296A11D4A
:10182000B11D209308028093090290930A02A093AD
:101830000B02B0930C0280910D0290910E02A091C8
:101840000F02B09110020196A11DB11D80930D02EF
:1018500090930E02A0930F02B0931002BF91AF912C
:101860009F918F913F912F910F900FBE0F901F90DE
:1018700018951F920F920FB60F9211242F933F933A
:101880004F935F936F937F938F939F93AF93BF9388
:10189000EF93FF938091B900887F803609F49CC054
:1018A00068F5883209F45BC090F4803109F454C0C3
:1018B00038F4882309F4F6C0883009F44DC0F6C026
:1018C000883109F44CC0803209F45DC0EFC0803427
:1018D00009F468C048F4803309F455C0883309F02E
:1018E000E5C08093E101D8C0803509F44FC0883548
:1018F00009F45DC0883409F0D9C0D6C0883909F42C
:10190000C7C0A8F4883709F467C038F4883609F4EA
:1019100063C0803709F460C0C9C0883809F4B8C012
:10192000803909F45FC0803809F0C0C05BC0803BDB
:1019300009F486C038F4803A09F466C0883A09F49C
:101940007FC0B4C0803C09F4A7C0883C09F4A4C09F
:10195000883B09F48AC0AAC08091070210C0909108
:10196000060280910502981770F5E091060281E069
:101970008E0F80930602F0E0EB51FE4F8081809342
:10198000BB0085EC86C08093E1018EC0E091060229
:1019900081E08E0F809306028091BB00F0E0EB5156
:1019A000FE4F808390910602809105026EC0E09107
:1019B000060281E08E0F809306028091BB00F0E06A
:1019C000EB51FE4F80838091E40181116DC081E075
:1019D0008093E30184EA61C083E08093E201109286
:1019E000E001CFCF8091E001803208F051C0E0915A
:1019F000E00181E08E0F8093E0018091BB00F0E078
:101A0000E054FE4F8083BDCF85EC8093BC001092E4
:101A1000E2018091E001803230F4E091E001F0E0F9
:101A2000E054FE4F10826091E00170E0E091BE0151
:101A3000F091BF0180EC91E009951092E00136C071
:101A400084E08093E2011092BD011092BC01E0910C
:101A5000BA01F091BB0109958091BC01811105C0CB
:101A600081E08093BC0110929A01E091BD0181E078
:101A70008E0F8093BD01F0E0E656FE4F808180938B
:101A8000BB009091BD018091BC01981708F479CFFB
:101A900085E88093BC000AC085EC8093BC0010925E
:101AA000E20104C01092E1010E94C006FF91EF9193
:101AB000BF91AF919F918F917F916F915F914F9166
:101AC0003F912F910F900FBE0F901F901895CF93BD
:101AD000DF93EC01EFA1F8A5908189A9892B808380
:101AE000EDA1FEA1908188A9809589238083CE01F4
:101AF0000E94EE0AEDA1FEA1908188A9892B808326
:101B0000DF91CF910895CF93DF93EC01EFA1F8A57A
:101B1000908189A9809589238083EDA1FEA1908180
:101B200088A9809589238083CE010E94EE0AEDA1C9
:101B3000FEA1908188A9892B8083DF91CF910895A0
:101B4000611102C060E201C061E20C94830DEF926A
:101B5000FF920F931F93CF93DF9300D0CDB7DEB7E3
:101B60007C01162F6AE229834A830E94830D60E07C
:101B7000C7010E94670DF70182A9612F680FC70195
:101B80000E94670D60E0C7010E94670DF70182A9FE
:101B90002981622F680FC7010E94670D6BE2C701A0
:101BA0000E94830D60E0C7010E94670DF70183A9C1
:101BB0004A81642F680FC7010E94670D60E0C7016A
:101BC0000E94670DF70183A9602F680FC7010E946B
:101BD000670D6CE2C7010F900F90DF91CF911F91BD
:101BE0000F91FF90EF900C94830DAF92BF92CF9224
:101BF000DF92EF92FF920F931F93CF93DF93EC014D
:101C00005901680128853985621773070CF04AC0AD
:101C10008A859B85481759070CF044C0FB01EA0DE3
:101C2000FB1D2E173F071CF45901A61AB70A9A018B
:101C30002C0D3D1D821793071CF46C01C41AD50AA4
:101C40000FEF040F0C0D2FEF260F2A0DCE010E946F
:101C5000A70DEFA1F8A5908189A9892B8083EDA11B
:101C6000FEA1908188A98095892380831C141D047E
:101C70009CF48501101611065CF46F2DCE010E94B4
:101C8000EE0A6E2DCE010E94EE0A01501109F2CF2C
:101C900081E0C81AD108EACFEDA1FEA1908188A900
:101CA000892B8083DF91CF911F910F91FF90EF904F
:101CB000DF90CF90BF90AF900895DF92EF92FF92A8
:101CC0000F931F93CF93DF93EC017901D02E88857A
:101CD000998568177907BCF52A853B854217530714
:101CE00094F59B012E0D3F1D821793071CF47C0178
:101CF000E61AF70A2FEF260F2E0D042FCE010E94B1
:101D0000A70DEFA1F8A5908189A9892B8083EDA16A
:101D1000FEA1908188A9809589238083E114F10434
:101D200061F0612FCE010E94EE0A6D2DCE010E945E
:101D3000EE0A81E0E81AF108F1CFEDA1FEA1908151
:101D400088A9892B8083DF91CF911F910F91FF90FC
:101D5000EF90DF900895DF92EF92FF920F931F9321
:101D6000CF93DF93EC017901D02E88859985681790
:101D70007907BCF58A859B854817590794F59A0120
:101D80002E0D3F1D821793071CF47C01E41AF50AFF
:101D90000FEF040F0E0D262FCE010E94A70DEFA10D
:101DA000F8A5908189A9892B8083EDA1FEA190815E
:101DB00088A9809589238083E114F10461F0612F63
:101DC000CE010E94EE0A6D2DCE010E94EE0A81E046
:101DD000E81AF108F1CFEDA1FEA1908188A9892B25
:101DE0008083DF91CF911F910F91FF90EF90DF9053
:101DF0000895EF92FF920F931F93CF93DF931F925B
:101E0000CDB7DEB77C01CB01122F77FD42C0D701E1
:101E100018966D917C91199786179707D4F557FD01
:101E200038C01A966D917C911B97461757078CF511
:101E300001E0040F21E0280F682FC70139830E94B9
:101E4000A70DD7019796ED91FC9198979081D19627
:101E50008C91D197892B80839596ED91FC919697E3
:101E60009081D0968C918095892380833981632FCE
:101E7000C7010E94EE0A612FC7010E94EE0AD70136
:101E80009596ED91FC9196979081D0968C91892BA7
:101E900080830F90DF91CF911F910F91FF90EF9072
:101EA0000895AF92BF92CF92DF92EF92FF920F937D
:101EB0001F93CF93DF938C01EB012196FB01D4900C
:101EC000DD2009F436C0FE016491C8010E94830D33
:101ED0005E01F2E0AF0EB11CFE013196C4918C2F71
:101EE0008078C82ECF777501DC2FD15048F0F701EC
:101EF0006491C8010E94670DFFEFEF1AFF0AF5CF4A
:101F0000C5018C0F911DEC01CC2089F07C019FEF65
:101F1000E91AF90AFE01649170E06F3F710511F44E
:101F200064EF71E080E090E00E943C10E701DA94F9
:101F3000C7CFDF91CF911F910F91FF90EF90DF906E
:101F4000CF90BF90AF90089590E0FC01ED5EF24F0E
:101F50002491FC01E350F34F8491882399F090E0A1
:101F6000880F991FFC01ED50F34FA591B491FC012E
:101F7000E751F34F859194918FB7F894EC91E22B50
:101F8000EC938FBF0895CF92DF92EF92FF920F9361
:101F90001F93CF93DF936C017A018B01C0E0D0E0F7
:101FA000CE15DF0589F0D8016D918D01D601ED9137
:101FB000FC910190F081E02DC6010995892B11F467
:101FC0007E0102C02196ECCFC701DF91CF911F9116
:101FD0000F91FF90EF90DF90CF9008950E94BF1473
:101FE00090E0FC01E859FF4F3491FC01ED5EF24FA7
:101FF0002491FC01E350F34FE491EE2309F43BC03C
:10200000332339F1333091F038F43130A9F03230E4
:1020100001F584B58F7D12C0373091F03830A1F0D2
:102020003430B9F4809180008F7D03C080918000AE
:102030008F77809380000DC084B58F7784BD09C0F1
:102040008091B0008F7703C08091B0008F7D809326
:10205000B000F0E0EE0FFF1FE751F34FA591B491F0
:102060008FB7F894EC91611103C020952E2301C025
:102070002E2B2C938FBF08958F929F92AF92BF9279
:10208000CF92DF92EF92FF926B017C010E94CA0B0C
:102090004B015C01C114D104E104F104F1F00E9490
:1020A000CA0BDC01CB0188199909AA09BB09883E32
:1020B0009340A105B10570F321E0C21AD108E108EF
:1020C000F10888EE880E83E0981EA11CB11CC11493
:1020D000D104E104F10419F7DDCFFF90EF90DF9018
:1020E000CF90BF90AF909F908F900895EEE8F1E071
:1020F0001382128288EE93E0A0E0B0E0848395839F
:10210000A683B7838AE091E09183808308957894D1
:1021100084B5826084BD84B5816084BD85B58260EC
:1021200085BD85B5816085BD80916E00816080939D
:102130006E00109281008091810082608093810006
:102140008091810081608093810000E810E080919F
:1021500080008160809380008091B10084608093D2
:10216000B1008091B00081608093B00080917A00CE
:10217000846080937A0080917A00826080937A00F4
:1021800080917A00816080937A0080917A008068E3
:1021900080937A001092C1008AE00E94A40F61E04F
:1021A0008AE00E94F00F81E00E94A40F60E081E0CD
:1021B0000E94F00F84E390E00E94C812EC011B82A1
:1021C0001A821D830C831F830E83198708871B8740
:1021D0000A871D8A1D861C861F861E8681E08C8BC1
:1021E0002FEF3FEF3B8B2A8B398B288B8E8F94E020
:1021F0009E8BECE7F4E0FB8FEA8F2CE730E03D8F1D
:102200002C8F898FE491EF8BEDE7F4E0E491E88F78
:1022100082E291E09983888382E189A78BE08AA793
:1022200083E18CA783E08DA78DE08BA718A2D093C4
:102230001402C09313021BAA1AAA8BE00E94A40FD7
:1022400089A50E94A40F29A530E0F901E350F34FBE
:10225000E491F0E0EE0FFF1FE751F34F8591949169
:102260009EA38DA34AA550E0FA01E350F34F849159
:10227000E82FF0E0EE0FFF1FE751F34F85919491A7
:1022800098A78FA3F901ED5EF24FE491E8ABFA0154
:10229000ED5EF24FE491E9AB88A1882309F43DC0DB
:1022A0001FB7F89480911502811124C0E7E0FDE08A
:1022B0008491EDE1FDE09491E82FF0E0EE0FFF1F37
:1022C000ED50F34FA591B491EC91E92321F461E035
:1022D0008AE00E94F00F8AE00E94A40F8CB5806112
:1022E0008CBD8CB580648CBD8DE00E94A40F8BE00A
:1022F0000E94A40F809115028F5F809315021FBF6B
:102300008CB58C7F8CBD8DB58E7F8DBD8CB58F7D52
:102310008CBD8CB5837F8CBD3AC08DA50E94A40F67
:102320008CA50E94A40F8DA590E0FC01E350F34F13
:10233000E491F0E0EE0FFF1FE751F34FA591B49148
:10234000BCA3ABA32CA530E0F901E350F34FE4911B
:10235000F0E0EE0FFF1FE751F34F459154915AA360
:1023600049A3FC01ED5EF24F84918FA7F901ED5E68
:10237000F24FE491EEA79C91E82FE095E923EC93CE
:10238000E9A1FAA190818EA5809589238083EDA192
:10239000FEA1908188A98095892380838BA58F3F9A
:1023A00001F10E94A40F61E08BA50E94F00F64EF81
:1023B00071E080E090E00E943C1060E08BA50E94FC
:1023C000F00F64EF71E080E090E00E943C1061E06B
:1023D0008BA50E94F00F64EF71E080E090E00E9416
:1023E0003C106EEA7CE0CE010E94510F61EA7CE075
:1023F000CE010E94510F66E77CE0CE010E94510F92
:1024000066E3CE010E94830D60ECCE010E94670D51
:1024100012E01F8FC0911302D091140266E3CE0127
:102420000E94830D1D8B8F8D823011F460E001C0FE
:1024300068E0CE010E94670D80E890E09987888768
:102440009B878A87E881F9810088F189E02D60E027
:1024500070E0CE010995A0911302B09114021D966F
:102460001C921E921C971F961C921E921E978FEF15
:102470009FEF53969C938E93529751969C938E9375
:10248000509781E05E968C935E97ED91FC91119749
:102490000280F381E02D4FE150E060E471E0CD0176
:1024A0000995A0911302B0911402ED91FC9111973E
:1024B0001A960D911C911B970150110918962D9198
:1024C0003C911997215031090680F781E02D40EEAB
:1024D000E42EFF24FA9440E050E060E070E0CD018B
:1024E0000995A0911302B0911402ED91FC911197FE
:1024F0001A960D911C911B970150110918966D9118
:102500007C911997615071090680F781E02D20E0D8
:1025100030E040E050E0CD010995809113029091A8
:102520001402DC01ED91FC9111971A964D915C918A
:102530001B9757FF02C04F5F5F4F5595479504802B
:10254000F581E02D20EE37E060E070E0099585E050
:1025500090E00E94C8122CE331E0FC01318320831B
:10256000148229E13BE030931202209311029093F0
:10257000170280931602C0E0D0E02097F1F30E948A
:102580000000FBCFEE0FFF1F0590F491E02D0994A2
:10259000CF93DF938230910510F482E090E0E091D8
:1025A0001A02F0911B0220E030E0C0E0D0E030974A
:1025B00011F14081518148175907C0F04817590758
:1025C00061F482819381209719F09B838A832BC0C9
:1025D00090931B0280931A0226C02115310519F031
:1025E0004217530718F49A01BE01DF01EF01028080
:1025F000F381E02DDCCF2115310509F1281B390BC2
:102600002430310590F412968D919C9113976115A9
:10261000710521F0FB019383828304C090931B0218
:1026200080931A02FD01329644C0FD01E20FF31FB0
:1026300081939193225031092D933C933AC020917C
:10264000180230911902232B41F42091020130919C
:102650000301309319022093180220910001309158
:1026600001012115310541F42DB73EB74091040118
:1026700050910501241B350BE0911802F0911902CD
:10268000E217F307A0F42E1B3F0B2817390778F049
:10269000AC014E5F5F4F2417350748F04E0F5F1FA8
:1026A00050931902409318028193919302C0E0E085
:1026B000F0E0CF01DF91CF9108950F931F93CF9357
:1026C000DF93009709F48CC0FC01329713821282C9
:1026D00000911A0210911B020115110581F420814D
:1026E0003181820F931F209118023091190228170F
:1026F000390779F5F0931902E093180271C0D801F7
:1027000040E050E0AE17BF0750F412962D913C9177
:102710001397AD012115310509F1D901F3CF9D01C1
:10272000DA013383228360817181860F971F8217BC
:10273000930769F4EC0128813981260F371F2E5F3A
:102740003F4F318320838A819B8193838283452BF2
:1027500029F4F0931B02E0931A0242C01396FC93F3
:10276000EE931297ED01499159919E01240F351F67
:10277000E217F30771F480819181840F951F02960F
:1027800011969C938E938281938113969C938E9342
:102790001297E0E0F0E0D80112968D919C9113978A
:1027A000009719F0F8018C01F6CF8D919C9198015A
:1027B0002E5F3F4F820F931F209118023091190214
:1027C0002817390769F4309729F410921B021092E8
:1027D0001A0202C013821282109319020093180287
:1027E000DF91CF911F910F910895A0E0B0E0EBEF42
:1027F000F3E10C940215EC01009721F4CB010E9447
:10280000C812B8C0FC01E60FF71F9C012250310925
:10281000E217F30708F4ACC0D9010D911C91119790
:1028200006171707B0F00530110508F49FC0C8015E
:1028300004978617970708F499C002501109061BE0
:10284000170B019311936D937C93CF010E945D133D
:102850008DC05B01A01AB10A4C01800E911EA0919F
:102860001A02B0911B0240E050E0E12CF12C1097CD
:1028700009F44AC0A815B905D1F56D907C9011975F
:10288000630182E0C80ED11CCA14DB0480F1A301ED
:102890004A195B096A0182E0C80ED11C1296BC90ED
:1028A00012971396AC91B5E0CB16D10440F0B282EA
:1028B000A38351834083D9016D937C930AC00E5F3B
:1028C0001F4FC301800F911FF90191838083EB2D6E
:1028D000FA2FE114F10431F0D7011396FC93EE9333
:1028E000129744C0F0931B02E0931A023FC08D91EF
:1028F0009C9111974817590708F4AC017D01129675
:102900000D90BC91A02DB3CF809118029091190227
:1029100088159905E1F446175707C8F4809100011E
:1029200090910101009741F48DB79EB74091040149
:1029300050910501841B950BE817F907C8F4F09333
:102940001902E0931802F901718360830FC0CB0173
:102950000E94C8127C01009759F0A801BE010E9494
:10296000C414CE010E945D13C70104C0CE0102C091
:1029700080E090E0CDB7DEB7EEE00C941E1581E06C
:1029800090E0F8940C943515FB01DC0102C0019035
:102990000D9241505040D8F70895FB01DC010190A1
:1029A0000D920020E1F70895BB27FB015527AA27C8
:1029B000880F991FAA1FA41710F0A41B83955051CC
:1029C000B9F7A05DAA3308F0A95DA193009779F744
:1029D000B111B1931192CB010C94EE14DC01FC0106
:1029E000672F71917723E1F7329704C07C916D9343
:1029F00070836291AE17BF07C8F308952F923F927C
:102A00004F925F926F927F928F929F92AF92BF92FE
:102A1000CF92DF92EF92FF920F931F93CF93DF93AA
:102A2000CDB7DEB7CA1BDB0B0FB6F894DEBF0FBE07
:102A3000CDBF09942A88398848885F846E847D8454
:102A40008C849B84AA84B984C884DF80EE80FD8056
:102A50000C811B81AA81B981CE0FD11D0FB6F894CC
:0E2A6000DEBF0FBECDBFED010895F894FFCF8D
:102A6E0000001C02800000000000680754074C079D
:102A7E0038072907280700000000EE0FC30F0000DB
:102A8E000000C208C30FF90E260AAB0E5D0ED70961
:102A9E00F50DD00AA00D9F0700000000830BC00BA0
:102AAE005175276573742D63652071756520747576
:102ABE0020666169732063652057453F203B2900DE
:020000020000FC
:107E0000F89434B733FD17C00FEF0DBF08E00EBF75
:107E1000519A5098589A599A489903C01197E0F787
:107E20000AC0BDD03296B591A0E80A95F1F7489BFB
:107E300005C01197D0F7A8D00C940000AA27BB2743
:107E400005E0489BFECF4899FECF1196489BFDCF99
:107E50001A970A95C1F73D013FEF259123232F3F44
:107E600061F0A0D0003021F00217B1F33327F5CF35
:107E700074D016F080D005C0DECFE0EFFFE740E120
:107E80000ED0EE27FF279AD08DD034D0FACF5DD018
:107E90000EF4089584D075D019D081D040E874D004
:107EA00005918DD04A95D9F7089559D02EF0F6DF77
:107EB000E038D9F7FD37C9F7089557D046D02EF0EE
:107EC00005D0FD37D9F7EF37C9F7089564D0099089
:107ED000199001E007BFE89532964250C1F7E0588B
:107EE000F04005E007BFE89507B700FDFDCFE0587B
:107EF000FF4F0895033689F2033449F20636A9F29A
:107F00000634D9F2053659F0053409F094CF1DD066
:107F100096F041D0099110D04A95E1F7F8CF1FD0E3
:107F200056F040E8E1BDF2BDF89A00B548D0319670
:107F30004A95C1F7F4CF089500BDE1BDF2BDFA9AAC
:107F4000F99AF999FECF3196089507D02EF023D0F3
:107F500029D009934A95E1F708950FE330D022D054
:107F6000E894013209F06894089519D0E058F0407F
:107F700008D0E1F70895F9DF0FEFDEDFF630E9F71B
:107F80000ED003E007BFE89507B700FDFDCF01E184
:107F900007BFE8950895C0E0D1E040E80895E0E823
:107FA000FDE70895589A4899FECF18E01DD017D0E4
:107FB0000695489900681A95D1F711C001E20FD0D3
:107FC0000CD018E000FD05D000FF07D006951A95EB
:107FD000C9F7519A5098599A02C0519A5998D301A9
:107FE00051970000E8F70895D301B695A795F8CF0B
:107FF0005453425B21F01E950F40C03EFF03AAAAD6
:00000001FF
