:100000000C945A000C9482000C9482000C94820090
:100010000C9482000C9482000C9482000C94820058
:100020000C9482000C9482000C9482000C94820048
:100030000C9482000C9482000C9482000C94820038
:100040000C942C050C9482000C94FA040C94D404A7
:100050000C9482000C9482000C9482000C94820018
:100060000C9476050C948200000000002500280006
:100070002B00040404040404040402020202020229
:10008000030303030303020201020408102040805B
:100090000102040810200102040810204080000022
:1000A0000008000201000003040700000000000037
:1000B0000000A40611241FBECFEFD8E0DEBFCDBFE5
:1000C00012E0A0E0B1E0E0EAF8E102C005900D9294
:1000D000A832B107D9F723E0A8E2B2E001C01D922F
:1000E000A737B207E1F710E0CAE5D0E004C02197D6
:1000F000FE010E945408C935D107C9F70E94E906DC
:100100000C944E0C0C94000090E0FC01E256FF4F62
:100110002491FC01E857FF4F3491FC01EE58FF4F4A
:10012000E491EE23B1F1222339F1233091F038F438
:100130002130A9F0223001F584B58F7D12C027301F
:1001400091F02830A1F02430B9F4809180008F7DA7
:1001500003C0809180008F77809380000DC084B5AC
:100160008F7784BD09C08091B0008F7703C08091E4
:10017000B0008F7D8093B000F0E0EE0FFF1FE859D4
:10018000FF4FA591B4918FB7F894EC913E2B3C931F
:100190008FBF08951092C4021092C3021092C2023F
:1001A0001092C1021092C00281E08093BF021092AF
:1001B000BE0282E10E94840083E10E948400E9EB98
:1001C000F0E080818E7F808380818D7F808388E4D2
:1001D0008093B80085E48093BC000895CF92DF92AD
:1001E000EF92FF920F931F93CF93DF936C017A01ED
:1001F0008B01C0E0D0E0CE15DF0589F0D8016D910C
:100200008D01D601ED91FC910190F081E02DC601A8
:100210000995892B11F47E0102C02196ECCFC7010C
:10022000DF91CF911F910F91FF90EF90DF90CF90D2
:100230000895FC01918D828D981761F0828DDF0108
:10024000A80FB11D5D968C91928D9F5F9F73928FC9
:1002500090E008958FEF9FEF0895FC01918D828DBE
:10026000981731F0828DE80FF11D858D90E008958B
:100270008FEF9FEF0895FC01918D228D892F90E0E3
:10028000805C9F4F821B91098F739927089585EC9D
:1002900092E00E943B0121E0892B09F420E0822FAB
:1002A0000895FC01848DDF01A80FB11DA35ABF4F33
:1002B0002C91848D90E001968F739927848FA68965
:1002C000B7892C93A089B1898C9180648C93938D8C
:1002D000848D981306C00288F389E02D80818F7D7C
:1002E00080830895EF92FF920F931F93CF93DF9334
:1002F000EC0181E0888F9B8D8C8D981305C0E88977
:10030000F989808185FD24C0F62E0B8D10E00F5FEA
:100310001F4F0F731127E02E8C8DE8120CC00FB603
:1003200007FCFACFE889F989808185FFF5CFCE01F6
:100330000E945101F1CF8B8DFE01E80FF11DE35AB0
:10034000FF4FF0820B8FEA89FB898081806207C0B2
:10035000EE89FF896083E889F989808180648083E0
:1003600081E090E0DF91CF911F910F91FF90EF908E
:100370000895CF93DF93EC01888D8823C9F0EA8933
:10038000FB89808185FD05C0A889B9898C9186FD8E
:100390000FC00FB607FCF5CF808185FFF2CFA8898B
:1003A000B9898C9185FFEDCFCE010E945101E7CF35
:1003B000DF91CF91089580E090E0892B29F00E9491
:1003C000470181110C94000008953FB7F894809183
:1003D000BA029091BB02A091BC02B091BD0226B5B9
:1003E000A89B05C02F3F19F00196A11DB11D3FBF6D
:1003F000BA2FA92F982F8827820F911DA11DB11DFB
:10040000BC01CD0142E0660F771F881F991F4A95F6
:10041000D1F7089585ED8093BC008091BC0084FDE8
:10042000FCCF1092C002089540916C02262F30E05C
:10043000240F311D21323105DCF42091C00224301B
:10044000C9F4FC0180E090E0861758F430916C020A
:100450002191DC01A65BBD4FA30FB11D2C9301962A
:10046000F3CF80916C02680F60936C0280E0089576
:1004700081E0089582E00895089581E090E0309150
:10048000C4022091C302321710F480E090E09195ED
:100490008195910908958091C4029091C3028917B2
:1004A00030F48F5F8093C40280E090E008958FEF76
:1004B0009FEF08958091C30290E02091C402821BB7
:1004C00091090895CF92DF92EF92FF920F931F93BD
:1004D000CF93DF937C01262F972F8A0180914902C9
:1004E000882391F0C62FD72F6E01C40ED51ECC15D0
:1004F000DD0571F06991D701ED91FC910190F081DA
:10050000E02DC7010995F3CF642F822F0E941402BA
:10051000C801DF91CF911F910F91FF90EF90DF9075
:10052000CF900895CF93DF931F92CDB7DEB7698345
:10053000209149022223D1F02091C102203240F0C3
:1005400021E030E0FC013383228380E090E015C09D
:100550008091C202E82FF0E0E75DFD4F9981908322
:100560008F5F8093C2028093C10205C061E0CE011B
:1005700001960E94140281E090E00F90DF91CF91EC
:1005800008958F929F92AF92BF92CF92DF92EF9297
:10059000FF920F931F93CF93DF931F92CDB7DEB7D8
:1005A000162F672FF090620381E080934902F0924A
:1005B00028021092C2021092C10283E693E049839E
:1005C0000E949202612F83E693E00E949202498189
:1005D000642F83E693E00E9492028091C1028132EF
:1005E00008F04AC00091C0020111FCCF92E0909344
:1005F000C00291E09093BF029FEF909391021092FE
:10060000B3028093B202A9E2B2E022E932E0F9013A
:100610009E2F921B981718F49D919193F9CF1092E9
:10062000B4028091B402FF0C8F298093B4028091B0
:10063000BE02813061F41092BE028091B4028093B8
:10064000BB008091BC0083FDF8CF85EC01C085EE36
:100650008093BC008091C0028230E1F380919102CE
:100660008F3F79F080919102803241F08091910228
:10067000803331F004E005C001E003C002E001C0B6
:1006800003E01092C2021092C1021092490210E0DF
:100690000E94E5014B015C0185E0C82ED12CE12CC4
:1006A000F12C0E94E501DC01CB0188199909AA0906
:1006B000BB09883E9340A105B10558F021E0C21A5C
:1006C000D108E108F10888EE880E83E0981EA11C8D
:1006D000B11CC114D104E104F10419F7C8010F9051
:1006E000DF91CF911F910F91FF90EF90DF90CF900E
:1006F000BF90AF909F908F900895CF92DF92EF922E
:10070000FF921F93CF93DF9300D01F92CDB7DEB738
:100710006B01142F2CE02093B8008A839B830E94E6
:10072000CA0020E52093620311508A81E82E9B8144
:10073000F92E17FD10C0F601E10FF11D17FDFA9516
:100740004081B701CE0101960E94C10211508FEF86
:10075000E81AF80AEECF0F900F900F90DF91CF912B
:100760001F91FF90EF90DF90CF900895009769F070
:10077000FC0101900020E9F73197AF01481B590BAC
:10078000BC0185EC92E00C94EE0080E090E00895CE
:10079000CF93DF930E94B603EC0186E291E00E94C2
:1007A000B6038C0F9D1FDF91CF9108950E94510ACF
:1007B0000F931F93CF93DF93EC018881998100976A
:1007C00029F02A813B812617370788F48B016F5F58
:1007D0007F4F0E948709009761F0998388831B836C
:1007E0000A832C813D81232B11F4FC01108281E0CE
:1007F00001C080E0DF91CF911F910F910895EF929A
:10080000FF920F931F93CF93DF9300D0CDB7DEB746
:100810008C0169831A82FC01E480F580FFEFEF1AF6
:10082000FF0AB7010E94D803882381F0F8012081D4
:10083000318184819581BE016F5F7F4F820F931F4D
:100840000E946B0AF801F582E48281E00F900F901C
:10085000DF91CF911F910F91FF90EF9008959F929C
:10086000AF92BF92CF92DF92EF92FF920F931F93BE
:10087000CF93DF9300D000D000D0CDB7DEB78C018E
:10088000962E1A8219821C821B821E821D8260E0B3
:1008900070E0CE0101960E94D80329813A8181112E
:1008A0000DC02115310519F0C9010E94EF081A8207
:1008B00019821E821D821C821B8207C01E821D821D
:1008C00068E271E0C9010E946B0AC8010E94B60388
:1008D000A12CE12CF12C00E010E085EC92E00E94CC
:1008E0003B0118161906A4F485EC92E00E94190148
:1008F0006C01B82E8AE0981225C0C6019927C097CE
:100900000A9798F56C2DCE0101960E94FF032DC029
:10091000AA2019F389819A810E94EF08B701C801C2
:1009200026960FB6F894DEBF0FBECDBFDF91CF91F4
:100930001F910F91FF90EF90DF90CF90BF90AF90FD
:100940009F90089580E198120CC0C60199270E94DB
:10095000560A892BC1F06C2DCE0101960E94FF032F
:1009600012C08AE0B812B9CF0BC08AE0B812B5CF76
:1009700089819A81009799F00E94830B7B018C01F9
:10098000AA24A394AACF8AE0B812A7CF40E150E0EE
:1009900060E070E089819A810E94720AEFCF60E086
:1009A00070E080E090E0EACF1F920F920FB60F92B6
:1009B00011242F933F934F935F936F937F938F9364
:1009C0009F93AF93BF93EF93FF9385EC92E00E94C8
:1009D0005101FF91EF91BF91AF919F918F917F91C5
:1009E0006F915F914F913F912F910F900FBE0F909C
:1009F0001F9018951F920F920FB60F9211242F93EC
:100A00008F939F93EF93FF93E091D502F091D602DD
:100A10008081E091DB02F091DC0282FD12C09081C6
:100A20008091DE028F5F8F732091DF02821751F079
:100A3000E091DE02F0E0EB53FD4F958F8093DE02F4
:100A400001C08081FF91EF919F918F912F910F9025
:100A50000FBE0F901F9018951F920F920FB60F9216
:100A600011242F933F938F939F93AF93BF938091C4
:100A7000B6029091B702A091B802B091B90230913C
:100A8000B50223E0230F2D3720F40196A11DB11DDF
:100A900005C026E8230F0296A11DB11D2093B502C3
:100AA0008093B6029093B702A093B802B093B902B4
:100AB0008091BA029091BB02A091BC02B091BD029C
:100AC0000196A11DB11D8093BA029093BB02A09321
:100AD000BC02B093BD02BF91AF919F918F913F91A6
:100AE0002F910F900FBE0F901F9018951F920F928D
:100AF0000FB60F9211242F933F934F935F936F93F1
:100B00007F938F939F93AF93BF93EF93FF938091C6
:100B1000B900887F803609F49CC068F5883209F4F2
:100B20005BC090F4803109F454C038F4882309F490
:100B3000F6C0883009F44DC0F6C0883109F44CC0C5
:100B4000803209F45DC0EFC0803409F468C048F415
:100B5000803309F455C0883309F0E5C080939102D1
:100B6000D8C0803509F44FC0883509F45DC0883499
:100B700009F0D9C0D6C0883909F4C7C0A8F48837AD
:100B800009F467C038F4883609F463C0803709F483
:100B900060C0C9C0883809F4B8C0803909F45FC0A2
:100BA000803809F0C0C05BC0803B09F486C038F4CF
:100BB000803A09F466C0883A09F47FC0B4C0803C2A
:100BC00009F4A7C0883C09F4A4C0883B09F48AC092
:100BD000AAC08091B40210C09091B3028091B20279
:100BE000981770F5E091B30281E08E0F8093B30205
:100BF000F0E0EE56FD4F80818093BB0085EC86C00F
:100C0000809391028EC0E091B30281E08E0F8093B9
:100C1000B3028091BB00F0E0EE56FD4F80839091CF
:100C2000B3028091B2026EC0E091B30281E08E0FF8
:100C30008093B3028091BB00F0E0EE56FD4F8083BD
:100C40008091BF0281116DC081E08093BE0284EA71
:100C500061C083E08093C00210929002CFCF809158
:100C60009002803208F051C0E091900281E08E0F36
:100C7000809390028091BB00F0E0E059FD4F8083AB
:100C8000BDCF85EC8093BC001092C0028091900291
:100C9000803230F4E0919002F0E0E059FD4F108294
:100CA0006091900270E0E0916E02F0916F0280E737
:100CB00092E009951092900236C084E08093C002C1
:100CC00010926D0210926C02E0916A02F0916B0238
:100CD000099580916C02811105C081E080936C02BE
:100CE00010924A02E0916D0281E08E0F80936D02B6
:100CF000F0E0E65BFD4F80818093BB0090916D0238
:100D000080916C02981708F479CF85E88093BC0035
:100D10000AC085EC8093BC001092C00204C01092FF
:100D200091020E940A02FF91EF91BF91AF919F91B2
:100D30008F917F916F915F914F913F912F910F9084
:100D40000FBE0F901F901895E5ECF2E0138212820F
:100D500088EE93E0A0E0B0E084839583A683B78318
:100D60002AE031E03183208325EC30E03587248789
:100D700024EC30E03787268720EC30E0318B208B65
:100D800021EC30E0338B228B22EC30E0358B248B4E
:100D900026EC30E0378B268B118E128E138E148E3C
:100DA000E3E6F3E01382128284839583A683B783FC
:100DB0008AE191E0918380838CE08093B8000E9467
:100DC000CA0080E5809362031092700310926F0353
:100DD0000895CF93DF93CDB7DEB7E6970FB6F894BB
:100DE000DEBF0FBECDBF789484B5826084BD84B56C
:100DF000816084BD85B5826085BD85B5816085BD16
:100E000080916E00816080936E00109281008091CD
:100E10008100826080938100809181008160809355
:100E20008100809180008160809380008091B1007A
:100E300084608093B1008091B00081608093B000A5
:100E400080917A00846080937A0080917A00826039
:100E500080937A0080917A00816080937A008091FB
:100E60007A00806880937A001092C100E091D502E8
:100E7000F091D60282E08083E091D102F091D2021B
:100E80008DE08083E091D302F091D40284E08083EE
:100E90001092DD02E091D902F091DA0286E08083BF
:100EA000E091D702F091D802808180618083E09147
:100EB000D702F091D802808188608083E091D702C8
:100EC000F091D802808180688083E091D702F09110
:100ED000D80280818F7D808389E291E00E94C803DF
:100EE00088E291E00E94C80389E0E3E1F2E0DE01DC
:100EF000929601900D928A95E1F78CE08093B8006C
:100F00000E94CA0080E5809362037E0182E2E80EBF
:100F1000F11C42E0C42ED12C8E010F5F1F4F58E010
:100F2000B52EBE0CF70141917F01B601C8010E94A8
:100F3000C102FFEFCF1ADF0ABE10F4CF8BE0ECE165
:100F4000F2E0D80101900D928A95E1F78CE0809350
:100F5000B8000E94CA0080E58093620378012AE00D
:100F6000C22ED12C3AE0B32EB00EF70141917F0191
:100F7000B601CE018B960E94C102FFEFCF1ADF0AA5
:100F8000BE10F3CF6AE088E491E00E942F046BABBF
:100F90007CAB8DAB9EAB44E0BE016D5C7F4F84E1CA
:100FA00090E00E947D036AE08FE691E00E942F04AA
:100FB0006FA778AB89AB9AAB44E0BE01615D7F4F10
:100FC00088E190E00E947D0360E182E991E00E9467
:100FD0002F046BA77CA78DA79EA744E0BE01655D8B
:100FE0007F4F8CE190E00E947D036AE080EA91E00F
:100FF0000E942F047093700360936F0342E06FE6CA
:1010000073E080E290E00E947D0388E291E00E941C
:10101000C80384EC91E00E94B60320916F033091E5
:10102000700340E050E019A27E0181E2E80EF11C5D
:101030009AE0892E912CA12CB12CCA01B901A501ED
:1010400094010E94DB0B605DF70162937F01211523
:1010500031054105510589F7CF010E94B60381E1B1
:1010600092E00E94C8038CE08093B8000E94CA00FE
:1010700080E58093620382E2E82EF12C85EC92E019
:101080000E943B0118161906CCF785EC92E00E94ED
:1010900019016701FFEFCF1ADF0A482FB701C80116
:1010A0000E94C1027601EACFEE0FFF1F0590F49176
:1010B000E02D0994CF93DF938230910510F482E004
:1010C00090E0E0917303F091740320E030E0C0E021
:1010D000D0E0309711F14081518148175907C0F095
:1010E0004817590761F482819381209719F09B83F7
:1010F0008A832BC0909374038093730326C02115B9
:10110000310519F04217530718F49A01BE01DF01A7
:10111000EF010280F381E02DDCCF2115310509F1CB
:10112000281B390B2430310590F412968D919C9137
:1011300013976115710521F0FB019383828304C02D
:101140009093740380937303FD01329644C0FD01B4
:10115000E20FF31F81939193225031092D933C9319
:101160003AC02091710330917203232B41F42091F6
:101170000201309103013093720320937103209197
:101180000001309101012115310541F42DB73EB721
:101190004091040150910501241B350BE09171032E
:1011A000F0917203E217F307A0F42E1B3F0B2817F0
:1011B000390778F0AC014E5F5F4F2417350748F0D0
:1011C0004E0F5F1F5093720340937103819391936D
:1011D00002C0E0E0F0E0CF01DF91CF9108950F93DE
:1011E0001F93CF93DF93009709F48CC0FC013297D3
:1011F000138212820091730310917403011511057B
:1012000081F420813181820F931F209171033091ED
:1012100072032817390779F5F0937203E09371038D
:1012200071C0D80140E050E0AE17BF0750F41296ED
:101230002D913C911397AD012115310509F1D9018B
:10124000F3CF9D01DA013383228360817181860FA0
:10125000971F8217930769F4EC0128813981260FC3
:10126000371F2E5F3F4F318320838A819B81938379
:101270008283452B29F4F0937403E093730342C0F7
:101280001396FC93EE931297ED01499159919E01AB
:10129000240F351FE217F30771F480819181840FC9
:1012A000951F029611969C938E938281938113963B
:1012B0009C938E931297E0E0F0E0D80112968D9106
:1012C0009C911397009719F0F8018C01F6CF8D913E
:1012D0009C9198012E5F3F4F820F931F20917103C5
:1012E000309172032817390769F4309729F4109266
:1012F00074031092730302C013821282109372035C
:1013000000937103DF91CF911F910F910895A0E099
:10131000B0E0EDE8F9E00C940C0CEC01009721F43E
:10132000CB010E945A08B8C0FC01E60FF71F9C01D0
:1013300022503109E217F30708F4ACC0D9010D912E
:101340001C91119706171707B0F00530110508F426
:101350009FC0C80104978617970708F499C00250E8
:101360001109061B170B019311936D937C93CF0109
:101370000E94EF088DC05B01A01AB10A4C01800EDB
:10138000911EA0917303B091740340E050E0E12CF2
:10139000F12C109709F44AC0A815B905D1F56D9044
:1013A0007C901197630182E0C80ED11CCA14DB0443
:1013B00080F1A3014A195B096A0182E0C80ED11CC1
:1013C0001296BC9012971396AC91B5E0CB16D1044F
:1013D00040F0B282A38351834083D9016D937C9303
:1013E0000AC00E5F1F4FC301800F911FF901918347
:1013F0008083EB2DFA2FE114F10431F0D70113961D
:10140000FC93EE93129744C0F0937403E09373033C
:101410003FC08D919C9111974817590708F4AC0172
:101420007D0112960D90BC91A02DB3CF80917103D8
:101430009091720388159905E1F446175707C8F48F
:101440008091000190910101009741F48DB79EB702
:101450004091040150910501841B950BE817F90791
:10146000C8F4F0937203E0937103F9017183608310
:101470000FC0CB010E945A087C01009759F0A801C7
:10148000BE010E94620ACE010E94EF08C70104C09B
:10149000CE0102C080E090E0CDB7DEB7EEE00C9464
:1014A000280C81E090E0F8940C944E0C91110C946F
:1014B000C80B80538A5028F0865C80628156865023
:1014C000B0F70895FB01DC0102C001900D9241507C
:1014D0005040D8F70895FB01DC0101900D920020E7
:1014E000E1F70895A0E0B0E0E8E7FAE00C94080C1A
:1014F0005C016B017A016115710519F0FB019183A3
:101500008083E114F10429F0C7010297839708F062
:10151000F1C0E5012196F5011081812F90E00E9434
:10152000AA0B892B11F05E01F4CF1D3229F421960C
:10153000F501118101E007C01B3221F4E50122967B
:10154000F501118100E0E114F10459F1F0E1EF1629
:10155000F10461F41033E1F488818F7D883569F5F9
:1015600019812296026070E1E72EF12C88E0E816DE
:10157000F10439F12CF4F2E0EF16F104C9F12AC0BC
:101580008AE0E816F10479F0E0E1EE16F10411F5D5
:1015900050E1E52EF12C812C912CA12C68E0B62E87
:1015A0002CC01033C9F23AE0E32EF12C4CEC842E1F
:1015B000982CA82C4CE0B42E20C010E3E114F104C8
:1015C000A9F698E0E92EF12C812C912CA12C20E198
:1015D000B22E13C060E070E080E090E897010F2C1D
:1015E000000C440B550B0E94DB0B49015A0105C04E
:1015F000812C912CA12C80E4B82E60E020E030E01A
:10160000A90127010F2C000C660877081E01E0EDE8
:10161000E10FEA3060F08FEB810F8A3110F4E9ECD2
:1016200005C08FE9810F8A3128F5E9EAE10F8E2F95
:1016300090E08E159F05F4F467FD18C0821693069E
:10164000A406B50690F0C301B2010E94CB0B9B012A
:10165000AC012E0F311D411D511D213031054105B9
:10166000F0E85F0710F461E001C06FEF2196F1012F
:101670001081CCCF802F8170C114D10471F066230A
:1016800029F02197F601D183C08307C001FF19C05B
:101690002297F601D183C08314C067FF12C0811165
:1016A00005C02FEF3FEF4FEF5FE704C020E030E0D1
:1016B00040E050E882E290E09093760380937503D7
:1016C00016C0882341F050954095309521953F4FA5
:1016D0004F4F5F4F0CC057FF0AC082E290E09093DB
:1016E0007603809375032FEF3FEF4FEF5FE7B9016C
:1016F000CA0104C060E070E080E090E0CDB7DEB7E2
:10170000E2E10C94240C1F93FC0199278827BC016B
:10171000E89411911032E9F3193010F01E30C8F33B
:101720001B3251F01D3249F4689406C00E94B30B7D
:10173000610F711D811D911D119110531A30B0F36D
:101740003EF490958095709561957F4F8F4F9F4F98
:101750001F91089591110C94C80B803219F0895093
:101760008550C8F70895592F482F372F262F660F19
:10177000771F881F991F660F771F881F991F620F99
:10178000731F841F951F660F771F881F991F089569
:10179000992788270895DB018F939F930E94FD0B63
:1017A000BF91AF91A29F800D911DA39F900DB29FFD
:1017B000900D11240895A1E21A2EAA1BBB1BFD0156
:1017C0000DC0AA1FBB1FEE1FFF1FA217B307E40720
:1017D000F50720F0A21BB30BE40BF50B661F771F78
:1017E000881F991F1A9469F7609570958095909558
:1017F0009B01AC01BD01CF0108950E943F0CA59F44
:10180000900DB49F900DA49F800D911D11240895FB
:101810002F923F924F925F926F927F928F929F9200
:10182000AF92BF92CF92DF92EF92FF920F931F93EE
:10183000CF93DF93CDB7DEB7CA1BDB0B0FB6F8949F
:10184000DEBF0FBECDBF09942A88398848885F84DF
:101850006E847D848C849B84AA84B984C884DF8050
:10186000EE80FD800C811B81AA81B981CE0FD11D34
:101870000FB6F894DEBF0FBECDBFED010895A29F55
:10188000B001B39FC001A39F700D811D1124911D54
:10189000B29F700D811D1124911D0895F894FFCF02
:1018A000000077038000000000007201EE003B01A1
:1018B00019012D01B90100000000920262025A02D2
:1018C0004B023D023C020D0A002D2D204D696E6930
:1018D000626F6F7420454550524F4D2075706C6F8C
:1018E00061646572202D2D004170706C69636174B4
:1018F000696F6E20756E69782074696D65737461A7
:101900006D702028646563696D616C293A2000431D
:10191000757272656E7420756E69782074696D6574
:101920007374616D702028646563696D616C293A18
:10193000200043524333322028686578293A20003A
:101940004170706C69636174696F6E2073697A6548
:10195000202862797465732C20646563696D616CFD
:10196000293A200048656164657220777269747451
:10197000656E2E20506C65617365207377697463A2
:101980006820746F2062696E617279206D6F646582
:1019900020616E642073656E6420612066696C65E9
:1019A000206F662062797465206C656E67746820AC
:1019B000002E006D696E69626F6F7400626C696EF3
:0819C0006BFFFFFFFFFF0000B9
:00000001FF
