:100000000C94DD020C9405030C9405030C94050379
:100010000C9405030C9405030C9405030C94050340
:100020000C9405030C9405030C9405030C94050330
:100030000C9405030C9405030C9405030C94050320
:100040000C94D7090C9405030C9405030C94050338
:100050000C9405030C9405030C9405030C94050300
:100060000C94210A0C94050300000000003E5B4F35
:100070005B3E3E6B4F6B3E1C3E7C3E1C183C7E3C08
:10008000181C577D571C1C5E7F5E1C00183C180016
:10009000FFE7C3E7FF0018241800FFE7DBE7FF30A6
:1000A000483A060E2629792926407F050507407F14
:1000B00005253F5A3CE73C5A7F3E1C1C08081C1C87
:1000C0003E7F14227F22145F5F005F5F06097F017D
:1000D0007F006689956A606060606094A2FFA29468
:1000E00008047E040810207E201008082A1C080836
:1000F0001C2A08081E101010100C1E0C1E0C303884
:100100003E3830060E3E0E06000000000000005F84
:1001100000000007000700147F147F14242A7F2AA0
:100120001223130864623649562050000807030062
:10013000001C2241000041221C002A1C7F1C2A08AE
:10014000083E080800807030000808080808000011
:1001500060600020100804023E5149453E00427F85
:10016000400072494949462141494D331814127FD4
:100170001027454545393C4A494931412111090774
:100180003649494936464949291E000014000000F5
:1001900040340000000814224114141414140041C7
:1001A00022140802015909063E415D594E7C121184
:1001B000127C7F494949363E414141227F414141BC
:1001C0003E7F494949417F090909013E4141517337
:1001D0007F0808087F00417F41002040413F017FA8
:1001E000081422417F404040407F021C027F7F0470
:1001F00008107F3E4141413E7F090909063E4151B9
:10020000215E7F09192946264949493203017F01A8
:10021000033F4040403F1F2040201F3F4038403FA9
:10022000631408146303047804036159494D4300BF
:100230007F4141410204081020004141417F0402F6
:10024000010204404040404000030708002054548D
:1002500078407F284444383844444428384444286B
:100260007F385454541800087E090218A4A49C78BE
:100270007F0804047800447D40002040403D007F1A
:100280001028440000417F40007C047804787C08FA
:100290000404783844444438FC18242418182424CE
:1002A00018FC7C08040408485454542404043F44B3
:1002B000243C4040207C1C2040201C3C4030403CE2
:1002C00044281028444C9090907C4464544C440042
:1002D00008364100000077000000413608000201A6
:1002E0000204023C2623263C1EA1A161123A404092
:1002F000207A385454555921555579412154547810
:1003000041215554784020545579400C1E527212A8
:100310003955555559395454545939555454580030
:1003200000457C410002457D420001457C40F029AA
:100330002429F0F0282528F07C54554500205454F9
:100340007C547C0A097F493249494932324848483D
:1003500032324A4848303A4141217A3A4240207884
:10036000009DA0A07D39444444393D4040403D3C7F
:1003700024FF2424487E4943662B2FFC2F2BFF09A2
:1003800029F620C0887E0903205454794100004496
:100390007D413048484A32384040227A007A0A0A81
:1003A000727D0D19317D2629292F282629292926F4
:1003B00030484D4020380808080808080808382F39
:1003C00010C8ACBA2F102834FA00007B00000814C3
:1003D0002A142222142A1408AA005500AAAA55AAEF
:1003E00055AA000000FF00101010FF00141414FFA5
:1003F000001010FF00FF1010F010F0141414FC0097
:100400001414F700FF0000FF00FF1414F404FC14A0
:100410001417101F10101F101F1414141F00101099
:1004200010F0000000001F101010101F101010100E
:10043000F010000000FF101010101010101010FF2E
:1004400010000000FF140000FF00FF00001F101745
:100450000000FC04F414141710171414F404F4002E
:1004600000FF00F714141414141414F700F71414F4
:1004700014171410101F101F141414F4141010F07B
:1004800010F000001F101F0000001F14000000FCEF
:10049000140000F010F01010FF10FF141414FF14DB
:1004A0001010101F00000000F010FFFFFFFFFFF012
:1004B000F0F0F0F0FFFFFF0000000000FFFF0F0F63
:1004C0000F0F0F38444438447C2A2A3E147E02021F
:1004D0000606027E027E0263554941633844443C6D
:1004E00004407E201E2006027E020299A5E7A599FF
:1004F0001C2A492A1C4C7201724C304A4D4D303036
:1005000048784830BC625A463D3E494949007E0120
:1005100001017E2A2A2A2A2A44445F444440514A3F
:10052000444040444A51400000FF0103E080FF0086
:100530000008086B6B083612362436060F090F06C2
:10054000000018180000001010003040FF010100EA
:100550001F01011E00191D1712003C3C3C3C00000D
:100560000000000000000800020100000304070072
:100570000000000000000000000000250028002B03
:100580000000000000240027002A000404040404E2
:10059000040404020202020202030303030303022F
:1005A000020102040810204080010204081020010A
:1005B0000204081020408000C00E11241FBECFEF9F
:1005C000D8E0DEBFCDBF13E0A0E0B1E0E0E5FEE1A2
:1005D00002C005900D92AE34B107D9F724E0AEE425
:1005E000B3E001C01D92A731B207E1F712E0CDEDF3
:1005F000D2E004C02197FE010E941B0FCC3DD10721
:10060000C9F70E948D0C0C94260F0C940000CF9219
:10061000DF92EF92FF920F931F93CF93DF936C01C2
:100620007A018B01C0E0D0E0CE15DF0589F0D8015A
:100630006D918D01D601ED91FC910190F081E02D3D
:10064000C6010995892B11F47E0102C02196ECCFD9
:10065000C701DF91CF911F910F91FF90EF90DF9035
:10066000CF9008953FB7F89480919A0390919B039F
:10067000A0919C03B0919D0326B5A89B05C02F3F78
:1006800019F00196A11DB11D3FBFBA2FA92F982FB8
:100690008827820F911DA11DB11DBC01CD0143E032
:1006A000660F771F881F991F4A95D1F708958F927B
:1006B0009F92AF92BF92CF92DF92EF92FF926B0127
:1006C0007C010E9432034B015C01C114D104E1049E
:1006D000F104F1F00E943203DC01CB018819990981
:1006E000AA09BB09883E9340A105B10570F321E03A
:1006F000C21AD108E108F10888EE880E83E0981E3E
:10070000A11CB11CC114D104E104F10419F7DDCF1F
:10071000FF90EF90DF90CF90BF90AF909F908F9021
:10072000089585ED8093BC008091BC0084FDFCCFD2
:100730001092C703089540917003262F30E0240FD4
:10074000311D21323105DCF42091C7032430C9F476
:10075000FC0180E090E0861758F4309170032191FD
:10076000DC01A25BBC4FA30FB11D2C930196F3CF0C
:1007700080917003680F6093700380E0089581E0BA
:10078000089582E00895089581E090E030919F03FC
:1007900020919E03321710F480E090E091958195AE
:1007A0009109089580919F0390919E03891730F4D9
:1007B0008F5F80939F0380E090E008958FEF9FEF1D
:1007C000089580919E0390E020919F03821B9109E0
:1007D0000895CF92DF92EF92FF920F931F93CF93E2
:1007E000DF937C01262F972F8A018091C8038823ED
:1007F00091F0C62FD72F6E01C40ED51ECC15DD0586
:1008000071F06991D701ED91FC910190F081E02D9B
:10081000C7010995F3CF642F822F0E949B03C80163
:10082000DF91CF911F910F91FF90EF90DF90CF90CC
:100830000895CF93DF931F92CDB7DEB769832091E0
:10084000C8032223D1F02091EB03203240F021E0B5
:1008500030E0FC013383228380E090E015C080917A
:10086000C903E82FF0E0E653FC4F998190838F5F36
:100870008093C9038093EB0305C061E0CE0101962C
:100880000E949B0381E090E00F90DF91CF9108954B
:100890000F931F93CF93DF93DC0155968C9155975F
:1008A000823071F0833009F1813009F078C01496FC
:1008B000ED91FC911597E41BF50BE21BF30B20C0A7
:1008C0001496ED91FC911597CF01861B970BBC01F7
:1008D000615071091696ED91FC911797CF01841B19
:1008E000950BAC01421B530B5AC01696ED91FC912F
:1008F0001797CF01861B970BBC0161507109FA0154
:1009000077FDCBC016964D915C91179764177507CC
:100910000CF0C3C0F7FF04C02E0F3F1FE0E0F0E073
:1009200014960D90BC91A02DCF01820F931FA81794
:10093000B9071CF49A012E1B3F0B121613060CF07C
:10094000ACC0CB0143E0959587954A95E1F7969524
:10095000982F882797958795E80FF91FE050FF4F4C
:100960006770772781E090E001C0880F6A95EAF709
:10097000482F2E0F3F1F0130110541F4E217F307F6
:1009800009F48BC08081842B8193F8CF8095E21786
:10099000F30709F482C0908198239193F8CF77FDF3
:1009A0007CC014968D919C911597681779070CF06F
:1009B00074C057FF04C0240F351F40E050E0169666
:1009C0008D919C911797FA01E20FF31F8E179F07E5
:1009D0001CF49C01241B350B121613060CF05DC091
:1009E000A22F842F86958695869590E8899F600D25
:1009F000711D1124FB01E050FF4F477011F198E089
:100A0000941B492F50E0EA01C85FDC4F8881291709
:100A100050F4421B51092FEF30E002C03595279565
:100A20004A95E2F7822320810130110511F4822BCF
:100A300002C0809582238083A91778F1A91BE05812
:100A4000FF4FA830D8F081E00130110509F080E0B7
:100A50008195EF019A2F8883C058DF4F98509830C6
:100A6000D0F788EF8A0F86958695869590E8899FBE
:100A7000E00DF11D1124E058FF4FA770AA2369F083
:100A8000B0E0A050BD4F8C9190810130110511F460
:100A9000892B02C0809589238083DF91CF911F919C
:100AA0000F9108950F931F93CF93DF93DC01559619
:100AB0008C915597823081F0833019F1813009F0A3
:100AC000ABC01496ED91FC911597CF01841B950B4B
:100AD000AC01415051091FC01496ED91FC9115973E
:100AE000CF01861B970BBC011696ED91FC911797D1
:100AF000CF01841B950BAC0141505109621B730B54
:100B00008BC01696ED91FC911797CF01861B970B22
:100B1000BC01621B730B57FDCCC014968D919C9148
:100B20001597481759070CF0C4C077FF04C0260F6B
:100B3000371F60E070E016968D919C911797FB012E
:100B4000E20FF31F8E179F071CF49C01261B370B27
:100B5000121613060CF0ADC0A22F862F869586952F
:100B6000869590E8899F400D511D1124FA01E050AF
:100B7000FF4F677019F198E0961B492F50E0EA018A
:100B8000C85FDC4F8881291750F4421B51092FEFB1
:100B900030E002C0359527954A95E2F782232081FF
:100BA0000130110511F4822B02C0809582238083CD
:100BB000A91708F47EC0A91BE058FF4FA830D8F051
:100BC00081E00130110509F080E08195EF019A2F55
:100BD0008883C058DF4F98509830D0F788EF8A0F3D
:100BE00086958695869590E8899FE00DF11D1124E4
:100BF000E058FF4FA770AA2309F45BC0B0E0A050F3
:100C0000BD4F8C9190810130110511F4892B02C0E8
:100C10008095892380834DC057FD4BC01696ED917A
:100C2000FC9117974E175F070CF043C077FF04C085
:100C3000260F371F60E070E014960D90BC91A02D38
:100C4000CB01820F931FA817B9071CF49F01261B25
:100C5000370B121613066CF5CA01E3E095958795DC
:100C6000EA95E1F79695982F882797958795FB0148
:100C7000E80FF91FE050FF4F4770552781E090E0E3
:100C800001C0880F4A95EAF7482F2E0F3F1F013009
:100C9000110539F4E217F30761F08081842B819309
:100CA000F9CF8095E217F30721F090819823919373
:100CB000F9CFDF91CF911F910F910895DC01FB01D6
:100CC00077FD83C018968D919C91199768177907C5
:100CD0000CF07BC057FD79C01A968D919C911B97A3
:100CE000481759070CF071C055968C915597823072
:100CF00009F05DC014966D917C911597CB018E1B08
:100D00009F0BFC01319716968D919C911797BC0112
:100D1000641B750BAB01415051090BC0813049F484
:100D200014968D919C911597841B950BAF01FC0136
:100D30003197BA016770772721303105D9F457FF11
:100D400002C0495F5F4F23E0559547952A95E1F72B
:100D50005695542F442757954795E40FF51FE050BB
:100D6000FF4F81E090E001C0880F6A95EAF790811B
:100D7000892B1BC057FF02C0495F5F4F83E0559529
:100D800047958A95E1F75695542F442757954795EF
:100D9000E40FF51FE050FF4F81E090E001C0880FA5
:100DA0006A95EAF78095908189238083089583303E
:100DB00009F0B4CF16968D919C9117978E1B9F0BBF
:100DC000FA01AC0141505109B4CF089508952F9212
:100DD0003F924F925F926F927F928F929F92AF92CB
:100DE000BF92CF92DF92EF92FF920F931F93CF9318
:100DF000DF93CDB7DEB72D970FB6F894DEBF0FBEE9
:100E0000CDBFFC016A3069F424898685978538E076
:100E1000239F800D911D1124978786871586148640
:100E2000E4C06D3009F4E1C09D878C8754895983F3
:100E3000828993899D838C83A089B189BF83AE8386
:100E400086849784C484D58480859185C816D90604
:100E5000BCF0EC85FD854489242F30E084859585A0
:100E6000F6E04F9F800D911D1124AC85BD851D9628
:100E70009C938E931C9756964C91411192C0B5C08D
:100E8000EC85FD85828593858816990614F7F9818E
:100E9000AF2EB12CC60126E0F29F800D911D1124CA
:100EA00018161906B4F6C50123E0880F991F2A9574
:100EB000E1F7880D991D181619065CF655E0659F37
:100EC000B001112416011A82CB018C199D09998752
:100ED0008887D4011896BB87AA87BA81B53049F0B4
:100EE000E885F985E20DF31DE859FF4F24912B8326
:100EF00001C01B82240134013B8130FF13C0AC854B
:100F0000BD85ED91FC91B981B13031F40480F5815A
:100F1000E02D2E813F8119C00684F785E02DEE80FB
:100F2000FF801EC0EC81FD812E813F81E217F30717
:100F3000F1F0AC85BD85ED91FC91B981B13059F4EA
:100F40000480F581E02D2C813D81A301B1018C85C8
:100F50009D8509950CC00684F785E02DEC80FD8009
:100F600085019501A201B6018C859D850995EB81CE
:100F7000E695EB83FFEF6F1A7F0A4A0C5B1C2A850C
:100F80003B856216730609F0B7CF3A813F5F3A831B
:100F90005FEF251A350ACA0CDB1C363009F09DCFED
:100FA00058CF4AEF4203B001439F700D1124AC8526
:100FB000BD8518964D915C911997460F571F48179C
:100FC00059079CF483E0220F331F8A95E1F71E96A0
:100FD0008D919C911F97280F391F1F963C932E933C
:100FE0001E971D961C921E921C9781E090E02D96F4
:100FF0000FB6F894DEBF0FBECDBFDF91CF911F912A
:101000000F91FF90EF90DF90CF90BF90AF909F90A7
:101010008F907F906F905F904F903F902F900895AA
:10102000EF92FF920F931F93DC01ED91FC911197CA
:101030001A960D911C911B9718962D913C9119971A
:101040000684F785E02D7B0140E050E060E070E031
:1010500009951F910F91FF90EF9008956F927F92E5
:101060008F929F92AF92BF92CF92DF92EF92FF92B8
:101070000F931F93CF93DF936C015A014801EB014B
:101080003B01620E731EC615D70574F4D601ED91AF
:10109000FC910084F185E02D87019401A501BE013A
:1010A000C60109952196EFCFDF91CF911F910F9146
:1010B000FF90EF90DF90CF90BF90AF909F908F9078
:1010C0007F906F900895EF92FF920F931F93DC0132
:1010D000ED91FC91260F371F215031090680F781D1
:1010E000E02D78018A0109951F910F91FF90EF90F3
:1010F0000895EF92FF920F931F937801DC01ED9119
:10110000FC91240F351F8901015011090680F781D8
:10111000E02D9B0109951F910F91FF90EF9008958D
:101120006F927F928F929F92AF92BF92CF92DF92F7
:10113000EF92FF920F931F93CF93DF93EC014B013C
:101140005A0169013801E881F9810284F385E02DB3
:1011500087010995E881F981A501460D571D415088
:1011600051090284F385E02D9601B401CE01099561
:10117000E881F9810084F185E02D9301A501B40196
:10118000CE010995E881F981C80CD91CB6016150DE
:1011900071090084F185E02D9301A501CE01099527
:1011A000DF91CF911F910F91FF90EF90DF90CF9043
:1011B000BF90AF909F908F907F906F9008952F92E7
:1011C0003F924F925F926F927F928F929F92AF92D7
:1011D000BF92CF92DF92EF92FF920F931F93CF9324
:1011E000DF9300D01F92CDB7DEB74C017B836A83BB
:1011F0006A01590117019801241B350B37FF03C001
:10120000319521953109C5014A815B81841B950B7C
:1012100097FF03C091958195910951E059838217F9
:10122000930714F019820BC09A2D8B2D5801092FAA
:10123000182F9A818B81DB82CA82C92ED82E8A818F
:101240009B81A816B9065CF49C2D8D2D6801092F91
:10125000182F9A818B81BB82AA82A92EB82E2501D4
:10126000AA81BB814A1A5B0A38016C187D0877FE97
:1012700003C0719461947108720157FE03C0BFEFFF
:10128000EB1AFB0AF594E794C016D1061CF00FEF99
:101290001FEF1FC001E010E01CC0D401ED91FC91D4
:1012A000B9810480F581E02D9101BB23C1F04A8111
:1012B0005B81B601C4010995E618F708F7FE04C082
:1012C000C00ED11EE40CF51CEA81FB813196FB8334
:1012D000EA834A815B81A416B506FCF604C0A60128
:1012E0006A817B81E7CF0F900F900F90DF91CF91B4
:1012F0001F910F91FF90EF90DF90CF90BF90AF9034
:101300009F908F907F906F905F904F903F902F9025
:1013100008950E94210F90E0FC01ED59FA4F34919D
:10132000FC01EF55FA4F2491FC01E557FA4FE49187
:10133000EE2309F43BC0332339F1333091F038F414
:101340003130A9F0323001F584B58F7D12C03730CD
:1013500091F03830A1F03430B9F4809180008F7D65
:1013600003C0809180008F77809380000DC084B58A
:101370008F7784BD09C08091B0008F7703C08091C2
:10138000B0008F7D8093B000F0E0EE0FFF1FE958B2
:10139000FA4FA591B4918FB7F894EC91611103C005
:1013A00020952E2301C02E2B2C938FBF08951F92C2
:1013B0000F920FB60F9211242F933F938F939F9309
:1013C000AF93BF938091960390919703A091980358
:1013D000B09199033091950326E0230F2D3720F427
:1013E0000296A11DB11D05C029E8230F0396A11D7A
:1013F000B11D209395038093960390939703A09338
:101400009803B093990380919A0390919B03A091C4
:101410009C03B0919D030196A11DB11D80939A0379
:1014200090939B03A0939C03B0939D03BF91AF91B6
:101430009F918F913F912F910F900FBE0F901F9012
:1014400018951F920F920FB60F9211242F933F936E
:101450004F935F936F937F938F939F93AF93BF93BC
:10146000EF93FF938091B900887F803609F49CC088
:1014700068F5883209F45BC090F4803109F454C0F7
:1014800038F4882309F4F6C0883009F44DC0F6C05A
:10149000883109F44CC0803209F45DC0EFC080345B
:1014A00009F468C048F4803309F455C0883309F062
:1014B000E5C08093C503D8C0803509F44FC0883596
:1014C00009F45DC0883409F0D9C0D6C0883909F460
:1014D000C7C0A8F4883709F467C038F4883609F41F
:1014E00063C0803709F460C0C9C0883809F4B8C047
:1014F000803909F45FC0803809F0C0C05BC0803B10
:1015000009F486C038F4803A09F466C0883A09F4D0
:101510007FC0B4C0803C09F4A7C0883C09F4A4C0D3
:10152000883B09F48AC0AAC08091A20310C09091A0
:10153000C4038091C303981770F5E091C40381E060
:101540008E0F8093C403F0E0ED55FC4F80818093B3
:10155000BB0085EC86C08093C5038EC0E091C403B8
:1015600081E08E0F8093C4038091BB00F0E0ED55C5
:10157000FC4F80839091C4038091C3036EC0E091BF
:10158000C40381E08E0F8093C4038091BB00F0E020
:10159000ED55FC4F80838091C60381116DC081E0C1
:1015A0008093A10384EA61C083E08093C703109213
:1015B0009403CFCF80919403803208F051C0E09122
:1015C000940381E08E0F809394038091BB00F0E040
:1015D000EC58FC4F8083BDCF85EC8093BC0010920B
:1015E000C70380919403803230F4E0919403F0E0DB
:1015F000EC58FC4F10826091940370E0E09172030C
:10160000F091730384E793E009951092940336C038
:1016100084E08093C7031092710310927003E091ED
:101620006E03F0916F03099580917003811105C0DD
:1016300081E08093700310924E03E091710381E08A
:101640008E0F80937103F0E0E25BFC4F808180930A
:10165000BB009091710380917003981708F479CFC3
:1016600085E88093BC000AC085EC8093BC00109292
:10167000C70304C01092C5030E949103FF91EF912C
:10168000BF91AF919F918F917F916F915F914F919A
:101690003F912F910F900FBE0F901F901895EF92D2
:1016A000FF920F931F93CF93DF93E82EF62EC7E0A0
:1016B000D0E0042F10E098010C2E02C0359527953C
:1016C0000A94E2F7B901617077278E2D0E948B0989
:1016D00061E08F2D0E948B0960E08F2D0E948B09A5
:1016E000219748F7DF91CF911F910F91FF90EF90D5
:1016F00008952091EB039091EA03213208F04AC04B
:101700008091C7038111FCCF32E03093C70331E0F1
:101710003093C6033FEF3093C5031092C403209368
:10172000C303AAECB3E043EA53E0FA013E2F341BB3
:10173000321718F43D913193F9CF1092A203209102
:10174000A203990F922B9093A2039091A103913041
:1017500061F41092A1039091A2039093BB00909129
:10176000BC0093FDF8CF95EC01C095EE9093BC00C2
:101770009091C7039230E1F39091C5039F3F79F0B8
:101780008091C503803241F08091C503803331F0F0
:1017900084E005C081E003C082E001C083E01092D4
:1017A000C9031092EB031092C8030895CF93C82F7A
:1017B000809111048F3F39F161E0809115040E94FE
:1017C0008B0960E0809113040E948B0960E0809196
:1017D00015040E948B0980911604882339F0CEBD30
:1017E00000000DB407FEFDCF8EB507C04C2F6091F1
:1017F0001204809111040E944F0B61E08091150446
:10180000CF910C948B0980910F0491E09093C803C1
:101810008093EA031092C9031092EB0360E08CEE10
:1018200093E00E9419046C2F8CEE93E00E9419043F
:10183000CF910C94790B90E0FC01EF55FA4F249175
:10184000FC01E557FA4F8491882399F090E0880FC6
:10185000991FFC01EF57FA4FA591B491FC01E9588B
:10186000FA4F859194918FB7F894EC91E22BEC9319
:101870008FBF0895009769F0FC0101900020E9F7FF
:101880003197AF01481B590BBC0188EF93E00C94D2
:10189000070380E090E008958F929F92AF92BF92ED
:1018A0000F931F93CF93DF93CDB7DEB7A1970FB6FA
:1018B000F894DEBF0FBECDBF19A2423008F44AE053
:1018C0008E010F5D1F4F842E912CA12CB12CA501F0
:1018D00094010E94F90EE62FB901CA0101501109C5
:1018E000EA3014F4E05D01C0E95CD801EC93232BED
:1018F000242B252B61F7C8010E943A0CA1960FB644
:10190000F894DEBF0FBECDBFDF91CF911F910F9135
:10191000BF90AF909F908F900895789484B5826027
:1019200084BD84B5816084BD85B5826085BD85B583
:10193000816085BD80916E00816080936E00109201
:10194000810080918100826080938100809181007C
:10195000816080938100809180008160809380000D
:101960008091B10084608093B1008091B00081606B
:101970008093B00080917A00846080937A00809197
:101980007A00826080937A0080917A008E7F8093C3
:101990007A0080917A00806880937A001092C1006A
:1019A00088E00E941B0C82E0809310048CE38093FB
:1019B0000F04809111048F3F09F45CC080911304DF
:1019C0000E941B0C809115040E941B0C8091160430
:1019D000811108C0809111040E941B0C8091120497
:1019E0000E941B0C80911604882309F46AC061E0F0
:1019F000809115040E948B098CB58F7D8CBD8CB5B0
:101A00008C7F81608CBD8DB581608DBD8CB5837FF1
:101A10008CBDCFB7F8948091A003811124C0E5E973
:101A2000F5E08491EBEAF5E09491E82FF0E0EE0F19
:101A3000FF1FEF57FA4FA591B491EC91E92321F4E0
:101A400061E08AE00E948B098AE00E941B0C8CB541
:101A500080618CBD8CB580648CBD8DE00E941B0CB8
:101A60008BE00E941B0C8091A0038F5F8093A003EA
:101A7000CFBF27C010929F0310929E031092C903FC
:101A80001092EB031092C70381E08093C60310927B
:101A9000A10361E082E10E948B0961E083E10E9481
:101AA0008B098091B9008E7F8093B9008091B90035
:101AB0008D7F8093B90080E28093B80085E48093A5
:101AC000BC00809114048F3F39F00E941B0C61E030
:101AD000809114040E948B0961E070E080E090E046
:101AE0000E945703809114048F3F71F060E00E94C0
:101AF0008B096AE070E080E090E00E94570361E0AB
:101B0000809114040E948B098EEA0E94D60B85ED09
:101B10000E94D60B80E80E94D60B88EA0E94D60B62
:101B20008FE10E94D60B83ED0E94D60B80E00E94CD
:101B3000D60B80E40E94D60B8DE80E94D60B84E180
:101B40000E94D60B80E20E94D60B80E00E94D60B4A
:101B500081EA0E94D60B88EC0E94D60B8AED0E9487
:101B6000D60B82E00E94D60B81E80E94D60B8FE84C
:101B70000E94D60B89ED0E94D60B81EF0E94D60BF6
:101B80008BED0E94D60B80E40E94D60B84EA0E9463
:101B9000D60B86EA0E94D60B8FEA0E94D60B80E015
:101BA00092E0E0E0F1E0DF019C011D922150304025
:101BB000E1F78EE20E94D60B81E080930C04C1E035
:101BC000D0E0D0930B04C0930A04D0930904C093CF
:101BD0000804109205041092040410920704109255
:101BE000060488E393E00E943A0C86E493E00E94A6
:101BF0003A0C1092090410920804D0930B04C0937D
:101C00000A044AE063E070E080E090E00E944C0C3F
:101C100089E493E00E943A0C4AE061E070E080E0E1
:101C200090E00E944C0C4AE064E070E080E090E0BC
:101C30000E944C0C86E493E00E943A0C82E0809370
:101C40000C04D0930B04C0930A04D0930904C093EE
:101C500008048BE493E00E943A0C40E16FEE7EEBC7
:101C60008DEA9EED0E944C0C86E493E00E943A0CB3
:101C700081E20E94D60B80E00E94D60B8FE70E9483
:101C8000D60B82E20E94D60B80E00E94D60B83E046
:101C90000E94D60B809111048F3F79F161E0809111
:101CA00015040E948B0961E0809113040E948B0946
:101CB00060E0809115040E948B09C0E0D1E0499159
:101CC00080911604882339F04EBD00000DB407FE44
:101CD000FDCF8EB506C060911204809111040E9460
:101CE0004F0B33E0C030D30751F761E0809115040A
:101CF0000E948B09C0E0D0E02CC0C0E0D1E0FF24FE
:101D0000F39480910F04F092C8038093EA03109239
:101D1000C9031092EB0360E48CEE93E00E94190477
:101D200000E010E0FE01E00FF11F60818CEE93E017
:101D30000E9419040F5F1F4F0031110599F70E948F
:101D4000790B609683E0C030D807D9F6D3CF0E94D4
:101D5000000061E088E00E948B096AE070E080E0AA
:101D600090E00E94570360E088E00E948B0968EED3
:101D700073E080E090E00E945703209751F3E7CF93
:101D8000ECEEF3E01382128288EE93E0A0E0B0E084
:101D900084839583A683B78384E193E091838083D2
:101DA000E8EFF3E01382128220E830E035832483E9
:101DB00080E290E0978386833187208793878287AC
:101DC000158A158614861786168681E0848B2FEF78
:101DD0003FEF338B228B318B208B868B84E293E019
:101DE000918380838FEF818F858F838F828F848F04
:101DF0000895A1E21A2EAA1BBB1BFD010DC0AA1F4C
:101E0000BB1FEE1FFF1FA217B307E407F50720F063
:101E1000A21BB30BE40BF50B661F771F881F991FDE
:101E20001A9469F760957095809590959B01AC0127
:101E3000BD01CF010895EE0FFF1F0590F491E02D35
:101E4000099481E090E0F8940C94260FF894FFCF69
:101E50000000000000000000000000000000000082
:101E60000000000000000000000000000000000072
:101E70000000000000000000000000000000000062
:101E800000000000000000000000000000000080D2
:101E90008080000000000000000000000000000042
:101EA000008080C0C00000000000000000000000B2
:101EB0000000000000000000000000000000000022
:101EC0000000000000000000000000000000000012
:101ED0000000000000000000000000000000000002
:101EE0000000000080C0E0F0F8FCF8E00000000016
:101EF0000000000000000000000000000080808062
:101F0000808000808000000000808080808000FF52
:101F1000FFFF0000000080808080000080800000C3
:101F200080FFFF8080008080008080808000808033
:101F30000000000000808000008C8E84000080F88B
:101F4000F8F8800000000000000000000000000021
:101F5000F0F0F0F0F0F0F0F0F0F0F0F0E0E0C08041
:101F600000E0FCFEFFFFFF7FFFFFFFFFFF00000020
:101F70000000000000000000000000FEFFC701019B
:101F8000010183FFFF00007CFEC70101010183FF07
:101F9000FFFF0038FEC78301010183C7FFFF000078
:101FA00001FFFF010100FFFF0701010100007FFFAA
:101FB00080000000FFFF7F0000FFFFFF000001FF27
:101FC000FFFF010000000000000000000000000012
:101FD000030F3F7F7FFFFFFFFFFFFFFFE7C7C78FB5
:101FE0008F9FBFFFFFC3C0F0FFFFFFFFFFFCFCFCA4
:101FF000FCFCFCFCFCF8F8F0F0E0C000010303037B
:1020000003030103030000000001030303030101B4
:1020100003010000000103030303010103030000A7
:1020200000030300000003030000000000000001A3
:102030000303030303010000000103010000000388
:10204000030100000000000000000000000000008C
:10205000000103070F1F3F7F0080C0E0F0F8FCFE87
:10206000000000001904E903E103D203C403C30321
:1020700000000000E70607035E06DF08480452057B
:1020800090082E081008E60648656C6C6F2C2077C7
:0E2090006F726C6421000D0A002E0030780083
:00000001FF
